{
  "_format": "hh-sol-artifact-1",
  "contractName": "KittyFactory",
  "sourceName": "contracts/KittyFactory.sol",
  "abi": [
    {
      "inputs": [
        {
          "internalType": "uint256",
          "name": "_id",
          "type": "uint256"
        },
        {
          "internalType": "uint256",
          "name": "_genes",
          "type": "uint256"
        }
      ],
      "name": "createKitty",
      "outputs": [],
      "stateMutability": "nonpayable",
      "type": "function"
    },
    {
      "inputs": [
        {
          "internalType": "uint256[]",
          "name": "_ids",
          "type": "uint256[]"
        },
        {
          "internalType": "uint256[]",
          "name": "_genes",
          "type": "uint256[]"
        }
      ],
      "name": "createManyKitties",
      "outputs": [],
      "stateMutability": "nonpayable",
      "type": "function"
    },
    {
      "inputs": [
        {
          "internalType": "uint256",
          "name": "",
          "type": "uint256"
        }
      ],
      "name": "genesOfKitties",
      "outputs": [
        {
          "internalType": "uint256",
          "name": "",
          "type": "uint256"
        }
      ],
      "stateMutability": "view",
      "type": "function"
    },
    {
      "inputs": [],
      "name": "getKittiesIds",
      "outputs": [
        {
          "internalType": "uint256[]",
          "name": "",
          "type": "uint256[]"
        }
      ],
      "stateMutability": "view",
      "type": "function"
    },
    {
      "inputs": [
        {
          "internalType": "uint256",
          "name": "_id",
          "type": "uint256"
        }
      ],
      "name": "getKitty",
      "outputs": [
        {
          "internalType": "bool",
          "name": "isGestating",
          "type": "bool"
        },
        {
          "internalType": "bool",
          "name": "isReady",
          "type": "bool"
        },
        {
          "internalType": "uint256",
          "name": "cooldownIndex",
          "type": "uint256"
        },
        {
          "internalType": "uint256",
          "name": "nextActionAt",
          "type": "uint256"
        },
        {
          "internalType": "uint256",
          "name": "siringWithId",
          "type": "uint256"
        },
        {
          "internalType": "uint256",
          "name": "birthTime",
          "type": "uint256"
        },
        {
          "internalType": "uint256",
          "name": "matronId",
          "type": "uint256"
        },
        {
          "internalType": "uint256",
          "name": "sireId",
          "type": "uint256"
        },
        {
          "internalType": "uint256",
          "name": "generation",
          "type": "uint256"
        },
        {
          "internalType": "uint256",
          "name": "genes",
          "type": "uint256"
        }
      ],
      "stateMutability": "view",
      "type": "function"
    },
    {
      "inputs": [
        {
          "internalType": "uint256",
          "name": "",
          "type": "uint256"
        }
      ],
      "name": "kittiesIds",
      "outputs": [
        {
          "internalType": "uint256",
          "name": "",
          "type": "uint256"
        }
      ],
      "stateMutability": "view",
      "type": "function"
    }
  ],
  "bytecode": "0x608060405234801561001057600080fd5b50610944806100206000396000f3fe608060405234801561001057600080fd5b50600436106100625760003560e01c80631f745ea4146100675780633dc364df14610097578063af30c9ff146100b5578063b92a398b146100d1578063c8a6831314610101578063e98b7f4d1461011d575b600080fd5b610081600480360381019061007c91906103c6565b610156565b60405161008e9190610402565b60405180910390f35b61009f61016e565b6040516100ac91906104db565b60405180910390f35b6100cf60048036038101906100ca91906104fd565b6101c6565b005b6100eb60048036038101906100e691906103c6565b61025a565b6040516100f89190610402565b60405180910390f35b61011b60048036038101906101169190610696565b61027e565b005b610137600480360381019061013291906103c6565b610324565b60405161014d9a99989796959493929190610729565b60405180910390f35b60016020528060005260406000206000915090505481565b606060008054806020026020016040519081016040528092919081815260200182805480156101bc57602002820191906000526020600020905b8154815260200190600101908083116101a8575b5050505050905090565b60006001600084815260200190815260200160002054036102235780600160008481526020019081526020016000208190555060008290806001815401808255809150506001900390600052602060002001600090919091909150555b80600160008481526020019081526020016000205414610256578060016000848152602001908152602001600020819055505b5050565b6000818154811061026a57600080fd5b906000526020600020016000915090505481565b80518251146102c2576040517f08c379a00000000000000000000000000000000000000000000000000000000081526004016102b990610848565b60405180910390fd5b60005b825181101561031f5761030c8382815181106102e4576102e3610868565b5b60200260200101518383815181106102ff576102fe610868565b5b60200260200101516101c6565b8080610317906108c6565b9150506102c5565b505050565b6000806000806000806000806000806000600160008d81526020019081526020016000205490506000806000806000806000806000899a509a509a509a509a509a509a509a509a509a50509193959799509193959799565b6000604051905090565b600080fd5b600080fd5b6000819050919050565b6103a381610390565b81146103ae57600080fd5b50565b6000813590506103c08161039a565b92915050565b6000602082840312156103dc576103db610386565b5b60006103ea848285016103b1565b91505092915050565b6103fc81610390565b82525050565b600060208201905061041760008301846103f3565b92915050565b600081519050919050565b600082825260208201905092915050565b6000819050602082019050919050565b61045281610390565b82525050565b60006104648383610449565b60208301905092915050565b6000602082019050919050565b60006104888261041d565b6104928185610428565b935061049d83610439565b8060005b838110156104ce5781516104b58882610458565b97506104c083610470565b9250506001810190506104a1565b5085935050505092915050565b600060208201905081810360008301526104f5818461047d565b905092915050565b6000806040838503121561051457610513610386565b5b6000610522858286016103b1565b9250506020610533858286016103b1565b9150509250929050565b600080fd5b6000601f19601f8301169050919050565b7f4e487b7100000000000000000000000000000000000000000000000000000000600052604160045260246000fd5b61058b82610542565b810181811067ffffffffffffffff821117156105aa576105a9610553565b5b80604052505050565b60006105bd61037c565b90506105c98282610582565b919050565b600067ffffffffffffffff8211156105e9576105e8610553565b5b602082029050602081019050919050565b600080fd5b600061061261060d846105ce565b6105b3565b90508083825260208201905060208402830185811115610635576106346105fa565b5b835b8181101561065e578061064a88826103b1565b845260208401935050602081019050610637565b5050509392505050565b600082601f83011261067d5761067c61053d565b5b813561068d8482602086016105ff565b91505092915050565b600080604083850312156106ad576106ac610386565b5b600083013567ffffffffffffffff8111156106cb576106ca61038b565b5b6106d785828601610668565b925050602083013567ffffffffffffffff8111156106f8576106f761038b565b5b61070485828601610668565b9150509250929050565b60008115159050919050565b6107238161070e565b82525050565b60006101408201905061073f600083018d61071a565b61074c602083018c61071a565b610759604083018b6103f3565b610766606083018a6103f3565b61077360808301896103f3565b61078060a08301886103f3565b61078d60c08301876103f3565b61079a60e08301866103f3565b6107a86101008301856103f3565b6107b66101208301846103f3565b9b9a5050505050505050505050565b600082825260208201905092915050565b7f546865206e756d626572206f66206964732073686f756c64206265206571756160008201527f6c20746f20746865206e756d626572206f662067656e65730000000000000000602082015250565b60006108326038836107c5565b915061083d826107d6565b604082019050919050565b6000602082019050818103600083015261086181610825565b9050919050565b7f4e487b7100000000000000000000000000000000000000000000000000000000600052603260045260246000fd5b7f4e487b7100000000000000000000000000000000000000000000000000000000600052601160045260246000fd5b60006108d182610390565b91507fffffffffffffffffffffffffffffffffffffffffffffffffffffffffffffffff820361090357610902610897565b5b60018201905091905056fea26469706673582212200f4015eaba741aae56d8123767d4ac3d5db785a9edd5c20e1b05f3a897d3581464736f6c63430008130033",
  "linkReferences": {},
  "deployedLinkReferences": {}
}