{
  "_format": "hh-sol-artifact-1",
  "contractName": "ZombieOwnership",
  "sourceName": "contracts/ZombieOwnership.sol",
  "abi": [
    {
      "anonymous": false,
      "inputs": [
        {
          "indexed": true,
          "internalType": "address",
          "name": "_owner",
          "type": "address"
        },
        {
          "indexed": true,
          "internalType": "address",
          "name": "_approved",
          "type": "address"
        },
        {
          "indexed": true,
          "internalType": "uint256",
          "name": "_tokenId",
          "type": "uint256"
        }
      ],
      "name": "Approval",
      "type": "event"
    },
    {
      "anonymous": false,
      "inputs": [
        {
          "indexed": false,
          "internalType": "uint256",
          "name": "zombieId",
          "type": "uint256"
        },
        {
          "indexed": false,
          "internalType": "string",
          "name": "name",
          "type": "string"
        },
        {
          "indexed": false,
          "internalType": "uint256",
          "name": "dna",
          "type": "uint256"
        }
      ],
      "name": "NewZombie",
      "type": "event"
    },
    {
      "anonymous": false,
      "inputs": [
        {
          "indexed": true,
          "internalType": "address",
          "name": "previousOwner",
          "type": "address"
        },
        {
          "indexed": true,
          "internalType": "address",
          "name": "newOwner",
          "type": "address"
        }
      ],
      "name": "OwnershipTransferred",
      "type": "event"
    },
    {
      "anonymous": false,
      "inputs": [
        {
          "indexed": true,
          "internalType": "address",
          "name": "_from",
          "type": "address"
        },
        {
          "indexed": true,
          "internalType": "address",
          "name": "_to",
          "type": "address"
        },
        {
          "indexed": true,
          "internalType": "uint256",
          "name": "_tokenId",
          "type": "uint256"
        }
      ],
      "name": "Transfer",
      "type": "event"
    },
    {
      "inputs": [
        {
          "internalType": "address",
          "name": "_approved",
          "type": "address"
        },
        {
          "internalType": "uint256",
          "name": "_tokenId",
          "type": "uint256"
        }
      ],
      "name": "approve",
      "outputs": [],
      "stateMutability": "payable",
      "type": "function"
    },
    {
      "inputs": [
        {
          "internalType": "uint256",
          "name": "_zombieId",
          "type": "uint256"
        },
        {
          "internalType": "uint256",
          "name": "_targetId",
          "type": "uint256"
        }
      ],
      "name": "attack",
      "outputs": [],
      "stateMutability": "nonpayable",
      "type": "function"
    },
    {
      "inputs": [
        {
          "internalType": "address",
          "name": "_owner",
          "type": "address"
        }
      ],
      "name": "balanceOf",
      "outputs": [
        {
          "internalType": "uint256",
          "name": "",
          "type": "uint256"
        }
      ],
      "stateMutability": "view",
      "type": "function"
    },
    {
      "inputs": [
        {
          "internalType": "uint256",
          "name": "_zombieId",
          "type": "uint256"
        },
        {
          "internalType": "uint256",
          "name": "_newDna",
          "type": "uint256"
        }
      ],
      "name": "changeDna",
      "outputs": [],
      "stateMutability": "nonpayable",
      "type": "function"
    },
    {
      "inputs": [
        {
          "internalType": "uint256",
          "name": "_zombieId",
          "type": "uint256"
        },
        {
          "internalType": "string",
          "name": "_newName",
          "type": "string"
        }
      ],
      "name": "changeName",
      "outputs": [],
      "stateMutability": "nonpayable",
      "type": "function"
    },
    {
      "inputs": [
        {
          "internalType": "string",
          "name": "_name",
          "type": "string"
        }
      ],
      "name": "createRandomZombie",
      "outputs": [],
      "stateMutability": "nonpayable",
      "type": "function"
    },
    {
      "inputs": [
        {
          "internalType": "uint256",
          "name": "_zombieId",
          "type": "uint256"
        },
        {
          "internalType": "uint256",
          "name": "_targetDna",
          "type": "uint256"
        },
        {
          "internalType": "string",
          "name": "_species",
          "type": "string"
        }
      ],
      "name": "feedAndMultiply",
      "outputs": [],
      "stateMutability": "nonpayable",
      "type": "function"
    },
    {
      "inputs": [
        {
          "internalType": "uint256",
          "name": "_zombieId",
          "type": "uint256"
        },
        {
          "internalType": "uint256",
          "name": "_kittyId",
          "type": "uint256"
        }
      ],
      "name": "feedOnKitty",
      "outputs": [],
      "stateMutability": "nonpayable",
      "type": "function"
    },
    {
      "inputs": [],
      "name": "getKittyContractAddress",
      "outputs": [
        {
          "internalType": "address",
          "name": "",
          "type": "address"
        }
      ],
      "stateMutability": "view",
      "type": "function"
    },
    {
      "inputs": [
        {
          "internalType": "uint256",
          "name": "_kittyId",
          "type": "uint256"
        }
      ],
      "name": "getKittyDna",
      "outputs": [
        {
          "internalType": "uint256",
          "name": "kittyDna",
          "type": "uint256"
        }
      ],
      "stateMutability": "view",
      "type": "function"
    },
    {
      "inputs": [
        {
          "internalType": "address",
          "name": "_owner",
          "type": "address"
        }
      ],
      "name": "getZombiesByOwner",
      "outputs": [
        {
          "internalType": "uint256[]",
          "name": "",
          "type": "uint256[]"
        }
      ],
      "stateMutability": "view",
      "type": "function"
    },
    {
      "inputs": [],
      "name": "isOwner",
      "outputs": [
        {
          "internalType": "bool",
          "name": "",
          "type": "bool"
        }
      ],
      "stateMutability": "view",
      "type": "function"
    },
    {
      "inputs": [
        {
          "internalType": "uint256",
          "name": "_zombieId",
          "type": "uint256"
        }
      ],
      "name": "levelUp",
      "outputs": [],
      "stateMutability": "payable",
      "type": "function"
    },
    {
      "inputs": [],
      "name": "owner",
      "outputs": [
        {
          "internalType": "address",
          "name": "",
          "type": "address"
        }
      ],
      "stateMutability": "view",
      "type": "function"
    },
    {
      "inputs": [
        {
          "internalType": "uint256",
          "name": "_tokenId",
          "type": "uint256"
        }
      ],
      "name": "ownerOf",
      "outputs": [
        {
          "internalType": "address",
          "name": "",
          "type": "address"
        }
      ],
      "stateMutability": "view",
      "type": "function"
    },
    {
      "inputs": [],
      "name": "renounceOwnership",
      "outputs": [],
      "stateMutability": "nonpayable",
      "type": "function"
    },
    {
      "inputs": [
        {
          "internalType": "address",
          "name": "_address",
          "type": "address"
        }
      ],
      "name": "setKittyContractAddress",
      "outputs": [],
      "stateMutability": "nonpayable",
      "type": "function"
    },
    {
      "inputs": [
        {
          "internalType": "uint256",
          "name": "_fee",
          "type": "uint256"
        }
      ],
      "name": "setLevelUpFee",
      "outputs": [],
      "stateMutability": "nonpayable",
      "type": "function"
    },
    {
      "inputs": [
        {
          "internalType": "address",
          "name": "_from",
          "type": "address"
        },
        {
          "internalType": "address",
          "name": "_to",
          "type": "address"
        },
        {
          "internalType": "uint256",
          "name": "_tokenId",
          "type": "uint256"
        }
      ],
      "name": "transferFrom",
      "outputs": [],
      "stateMutability": "payable",
      "type": "function"
    },
    {
      "inputs": [
        {
          "internalType": "address",
          "name": "newOwner",
          "type": "address"
        }
      ],
      "name": "transferOwnership",
      "outputs": [],
      "stateMutability": "nonpayable",
      "type": "function"
    },
    {
      "inputs": [],
      "name": "withdraw",
      "outputs": [],
      "stateMutability": "nonpayable",
      "type": "function"
    },
    {
      "inputs": [
        {
          "internalType": "uint256",
          "name": "",
          "type": "uint256"
        }
      ],
      "name": "zombieToOwner",
      "outputs": [
        {
          "internalType": "address",
          "name": "",
          "type": "address"
        }
      ],
      "stateMutability": "view",
      "type": "function"
    },
    {
      "inputs": [
        {
          "internalType": "uint256",
          "name": "",
          "type": "uint256"
        }
      ],
      "name": "zombies",
      "outputs": [
        {
          "internalType": "string",
          "name": "name",
          "type": "string"
        },
        {
          "internalType": "uint256",
          "name": "dna",
          "type": "uint256"
        },
        {
          "internalType": "uint32",
          "name": "level",
          "type": "uint32"
        },
        {
          "internalType": "uint32",
          "name": "readyTime",
          "type": "uint32"
        },
        {
          "internalType": "uint16",
          "name": "winCount",
          "type": "uint16"
        },
        {
          "internalType": "uint16",
          "name": "lossCount",
          "type": "uint16"
        }
      ],
      "stateMutability": "view",
      "type": "function"
    }
  ],
  "bytecode": "0x60806040526010600155600154600a6200001a919062000293565b600255603c60035566038d7ea4c6800060085560006009556046600a553480156200004457600080fd5b50336000806101000a81548173ffffffffffffffffffffffffffffffffffffffff021916908373ffffffffffffffffffffffffffffffffffffffff16021790555060008054906101000a900473ffffffffffffffffffffffffffffffffffffffff1673ffffffffffffffffffffffffffffffffffffffff16600073ffffffffffffffffffffffffffffffffffffffff167f8be0079c531659141344cd1fd0a4f28419497f9722a3daafe3b4186f6b6457e060405160405180910390a3620002e4565b7f4e487b7100000000000000000000000000000000000000000000000000000000600052601160045260246000fd5b60008160011c9050919050565b6000808291508390505b600185111562000194578086048111156200016c576200016b62000106565b5b60018516156200017c5780820291505b80810290506200018c8562000135565b94506200014c565b94509492505050565b600082620001af576001905062000282565b81620001bf576000905062000282565b8160018114620001d85760028114620001e35762000219565b600191505062000282565b60ff841115620001f857620001f762000106565b5b8360020a91508482111562000212576200021162000106565b5b5062000282565b5060208310610133831016604e8410600b8410161715620002535782820a9050838111156200024d576200024c62000106565b5b62000282565b62000262848484600162000142565b925090508184048111156200027c576200027b62000106565b5b81810290505b9392505050565b6000819050919050565b6000620002a08262000289565b9150620002ad8362000289565b9250620002dc7fffffffffffffffffffffffffffffffffffffffffffffffffffffffffffffffff84846200019d565b905092915050565b6130e080620002f46000396000f3fe6080604052600436106101405760003560e01c80636352211e116100b65780638f32d59b1161006f5780638f32d59b14610420578063c39cbef11461044b578063c7d5713a14610474578063ccf670f8146104b1578063e1fa7638146104da578063f2fde38b1461050357610140565b80636352211e146103125780636b0bfc801461034f57806370a0823114610378578063715018a6146103b55780637bff0a01146103cc5780638da5cb5b146103f557610140565b80632a2cd535116101085780632a2cd535146102045780633ccfd60b1461022f5780634412e10414610246578063528b7b8f146102835780635f4623f1146102c05780635faf2880146102e957610140565b8063095ea7b3146101455780630ce90ec21461016157806317a7f4cc1461017d5780632052465e146101a657806323b872dd146101e8575b600080fd5b61015f600480360381019061015a9190611ecf565b61052c565b005b61017b60048036038101906101769190611f0f565b610680565b005b34801561018957600080fd5b506101a4600480360381019061019f9190611f3c565b61072b565b005b3480156101b257600080fd5b506101cd60048036038101906101c89190611f0f565b610849565b6040516101df96959493929190612057565b60405180910390f35b61020260048036038101906101fd91906120bf565b610959565b005b34801561021057600080fd5b50610219610a3d565b6040516102269190612121565b60405180910390f35b34801561023b57600080fd5b50610244610a67565b005b34801561025257600080fd5b5061026d6004803603810190610268919061213c565b610b04565b60405161027a9190612227565b60405180910390f35b34801561028f57600080fd5b506102aa60048036038101906102a59190611f0f565b610c56565b6040516102b79190612121565b60405180910390f35b3480156102cc57600080fd5b506102e760048036038101906102e2919061213c565b610c89565b005b3480156102f557600080fd5b50610310600480360381019061030b9190611f3c565b610d14565b005b34801561031e57600080fd5b5061033960048036038101906103349190611f0f565b610e68565b6040516103469190612121565b60405180910390f35b34801561035b57600080fd5b506103766004803603810190610371919061237e565b610ea5565b005b34801561038457600080fd5b5061039f600480360381019061039a919061213c565b6110ad565b6040516103ac91906123ed565b60405180910390f35b3480156103c157600080fd5b506103ca6110f6565b005b3480156103d857600080fd5b506103f360048036038101906103ee9190612408565b6111fb565b005b34801561040157600080fd5b5061040a6112b2565b6040516104179190612121565b60405180910390f35b34801561042c57600080fd5b506104356112db565b604051610442919061246c565b60405180910390f35b34801561045757600080fd5b50610472600480360381019061046d91906124e7565b611332565b005b34801561048057600080fd5b5061049b60048036038101906104969190611f0f565b611492565b6040516104a891906123ed565b60405180910390f35b3480156104bd57600080fd5b506104d860048036038101906104d39190611f0f565b611570565b005b3480156104e657600080fd5b5061050160048036038101906104fc9190611f3c565b6115c1565b005b34801561050f57600080fd5b5061052a6004803603810190610525919061213c565b611858565b005b806005600082815260200190815260200160002060009054906101000a900473ffffffffffffffffffffffffffffffffffffffff1673ffffffffffffffffffffffffffffffffffffffff163373ffffffffffffffffffffffffffffffffffffffff16146105ce576040517f08c379a00000000000000000000000000000000000000000000000000000000081526004016105c590612593565b60405180910390fd5b82600b600084815260200190815260200160002060006101000a81548173ffffffffffffffffffffffffffffffffffffffff021916908373ffffffffffffffffffffffffffffffffffffffff160217905550818373ffffffffffffffffffffffffffffffffffffffff163373ffffffffffffffffffffffffffffffffffffffff167f8c5be1e5ebec7d5bd14f71427d1e84f3dd0314c0f7b2291e5b200ac8c7c3b92560405160405180910390a4505050565b60085434146106c4576040517f08c379a00000000000000000000000000000000000000000000000000000000081526004016106bb90612625565b60405180910390fd5b600481815481106106d8576106d7612645565b5b9060005260206000209060030201600201600081819054906101000a900463ffffffff1680929190610709906126a3565b91906101000a81548163ffffffff021916908363ffffffff1602179055505050565b6000600760009054906101000a900473ffffffffffffffffffffffffffffffffffffffff1673ffffffffffffffffffffffffffffffffffffffff1663e98b7f4d836040518263ffffffff1660e01b815260040161078891906123ed565b61014060405180830381865afa1580156107a6573d6000803e3d6000fd5b505050506040513d601f19601f820116820180604052508101906107ca9190612710565b9091929394959697985090919293949596975090919293949596509091929394955090919293945090919293509091925090915090508091505061084483826040518060400160405280600581526020017f6b69747479000000000000000000000000000000000000000000000000000000815250610ea5565b505050565b6004818154811061085957600080fd5b906000526020600020906003020160009150905080600001805461087c9061281e565b80601f01602080910402602001604051908101604052809291908181526020018280546108a89061281e565b80156108f55780601f106108ca576101008083540402835291602001916108f5565b820191906000526020600020905b8154815290600101906020018083116108d857829003601f168201915b5050505050908060010154908060020160009054906101000a900463ffffffff16908060020160049054906101000a900463ffffffff16908060020160089054906101000a900461ffff169080600201600a9054906101000a900461ffff16905086565b3373ffffffffffffffffffffffffffffffffffffffff166005600083815260200190815260200160002060009054906101000a900473ffffffffffffffffffffffffffffffffffffffff1673ffffffffffffffffffffffffffffffffffffffff161480610a2457503373ffffffffffffffffffffffffffffffffffffffff16600b600083815260200190815260200160002060009054906101000a900473ffffffffffffffffffffffffffffffffffffffff1673ffffffffffffffffffffffffffffffffffffffff16145b610a2d57600080fd5b610a388383836118ab565b505050565b6000600760009054906101000a900473ffffffffffffffffffffffffffffffffffffffff16905090565b610a6f6112db565b610aae576040517f08c379a0000000000000000000000000000000000000000000000000000000008152600401610aa5906128c1565b60405180910390fd5b6000610ab86112b2565b90508073ffffffffffffffffffffffffffffffffffffffff166108fc479081150290604051600060405180830381858888f19350505050158015610b00573d6000803e3d6000fd5b5050565b60606000600660008473ffffffffffffffffffffffffffffffffffffffff1673ffffffffffffffffffffffffffffffffffffffff1681526020019081526020016000205467ffffffffffffffff811115610b6157610b60612253565b5b604051908082528060200260200182016040528015610b8f5781602001602082028036833780820191505090505b5090506000805b600480549050811015610c4b578473ffffffffffffffffffffffffffffffffffffffff166005600083815260200190815260200160002060009054906101000a900473ffffffffffffffffffffffffffffffffffffffff1673ffffffffffffffffffffffffffffffffffffffff1603610c385780838381518110610c1d57610c1c612645565b5b6020026020010181815250508180610c34906128e1565b9250505b8080610c43906128e1565b915050610b96565b508192505050919050565b60056020528060005260406000206000915054906101000a900473ffffffffffffffffffffffffffffffffffffffff1681565b610c916112db565b610cd0576040517f08c379a0000000000000000000000000000000000000000000000000000000008152600401610cc7906128c1565b60405180910390fd5b80600760006101000a81548173ffffffffffffffffffffffffffffffffffffffff021916908373ffffffffffffffffffffffffffffffffffffffff16021790555050565b6014828160048281548110610d2c57610d2b612645565b5b906000526020600020906003020160020160009054906101000a900463ffffffff1663ffffffff161015610d95576040517f08c379a0000000000000000000000000000000000000000000000000000000008152600401610d8c90612975565b60405180910390fd5b836005600082815260200190815260200160002060009054906101000a900473ffffffffffffffffffffffffffffffffffffffff1673ffffffffffffffffffffffffffffffffffffffff163373ffffffffffffffffffffffffffffffffffffffff1614610e37576040517f08c379a0000000000000000000000000000000000000000000000000000000008152600401610e2e90612593565b60405180910390fd5b8360048681548110610e4c57610e4b612645565b5b9060005260206000209060030201600101819055505050505050565b60006005600083815260200190815260200160002060009054906101000a900473ffffffffffffffffffffffffffffffffffffffff169050919050565b826005600082815260200190815260200160002060009054906101000a900473ffffffffffffffffffffffffffffffffffffffff1673ffffffffffffffffffffffffffffffffffffffff163373ffffffffffffffffffffffffffffffffffffffff1614610f47576040517f08c379a0000000000000000000000000000000000000000000000000000000008152600401610f3e90612593565b60405180910390fd5b600060048581548110610f5d57610f5c612645565b5b90600052602060002090600302019050610f7681611a07565b610fb5576040517f08c379a0000000000000000000000000000000000000000000000000000000008152600401610fac906129e1565b60405180910390fd5b60025484610fc39190612a30565b935060006002858360010154610fd99190612a61565b610fe39190612a95565b9050604051602001610ff490612b1d565b604051602081830303815290604052805190602001208460405160200161101b9190612b63565b604051602081830303815290604052805190602001200361105d5760636064826110459190612a30565b826110509190612b7a565b61105a9190612a61565b90505b61109c6040518060400160405280600681526020017f4e6f4e616d65000000000000000000000000000000000000000000000000000081525082611a2e565b6110a582611c5d565b505050505050565b6000600660008373ffffffffffffffffffffffffffffffffffffffff1673ffffffffffffffffffffffffffffffffffffffff168152602001908152602001600020549050919050565b6110fe6112db565b61113d576040517f08c379a0000000000000000000000000000000000000000000000000000000008152600401611134906128c1565b60405180910390fd5b600073ffffffffffffffffffffffffffffffffffffffff1660008054906101000a900473ffffffffffffffffffffffffffffffffffffffff1673ffffffffffffffffffffffffffffffffffffffff167f8be0079c531659141344cd1fd0a4f28419497f9722a3daafe3b4186f6b6457e060405160405180910390a360008060006101000a81548173ffffffffffffffffffffffffffffffffffffffff021916908373ffffffffffffffffffffffffffffffffffffffff160217905550565b6000600660003373ffffffffffffffffffffffffffffffffffffffff1673ffffffffffffffffffffffffffffffffffffffff168152602001908152602001600020541461127d576040517f08c379a000000000000000000000000000000000000000000000000000000000815260040161127490612bfa565b60405180910390fd5b600061128882611c90565b90506064816112979190612a30565b816112a29190612b7a565b90506112ae8282611a2e565b5050565b60008060009054906101000a900473ffffffffffffffffffffffffffffffffffffffff16905090565b60008060009054906101000a900473ffffffffffffffffffffffffffffffffffffffff1673ffffffffffffffffffffffffffffffffffffffff163373ffffffffffffffffffffffffffffffffffffffff1614905090565b600283816004828154811061134a57611349612645565b5b906000526020600020906003020160020160009054906101000a900463ffffffff1663ffffffff1610156113b3576040517f08c379a00000000000000000000000000000000000000000000000000000000081526004016113aa90612975565b60405180910390fd5b846005600082815260200190815260200160002060009054906101000a900473ffffffffffffffffffffffffffffffffffffffff1673ffffffffffffffffffffffffffffffffffffffff163373ffffffffffffffffffffffffffffffffffffffff1614611455576040517f08c379a000000000000000000000000000000000000000000000000000000000815260040161144c90612593565b60405180910390fd5b84846004888154811061146b5761146a612645565b5b90600052602060002090600302016000019182611489929190612dd1565b50505050505050565b6000600760009054906101000a900473ffffffffffffffffffffffffffffffffffffffff1673ffffffffffffffffffffffffffffffffffffffff1663e98b7f4d836040518263ffffffff1660e01b81526004016114ef91906123ed565b61014060405180830381865afa15801561150d573d6000803e3d6000fd5b505050506040513d601f19601f820116820180604052508101906115319190612710565b90919293949596979850909192939495969750909192939495965090919293949550909192939450909192935090919250909150905080915050919050565b6115786112db565b6115b7576040517f08c379a00000000000000000000000000000000000000000000000000000000081526004016115ae906128c1565b60405180910390fd5b8060088190555050565b816005600082815260200190815260200160002060009054906101000a900473ffffffffffffffffffffffffffffffffffffffff1673ffffffffffffffffffffffffffffffffffffffff163373ffffffffffffffffffffffffffffffffffffffff1614611663576040517f08c379a000000000000000000000000000000000000000000000000000000000815260040161165a90612593565b60405180910390fd5b60006004848154811061167957611678612645565b5b9060005260206000209060030201905060006004848154811061169f5761169e612645565b5b9060005260206000209060030201905060006116bb6064611cd5565b9050600a5481116117cc5782600201600881819054906101000a900461ffff16809291906116e890612ea1565b91906101000a81548161ffff021916908361ffff1602179055505082600201600081819054906101000a900463ffffffff1680929190611727906126a3565b91906101000a81548163ffffffff021916908363ffffffff1602179055505081600201600a81819054906101000a900461ffff168092919061176890612ea1565b91906101000a81548161ffff021916908361ffff160217905550506117c78683600101546040518060400160405280600681526020017f7a6f6d6269650000000000000000000000000000000000000000000000000000815250610ea5565b611850565b82600201600a81819054906101000a900461ffff16809291906117ee90612ea1565b91906101000a81548161ffff021916908361ffff1602179055505081600201600881819054906101000a900461ffff168092919061182b90612ea1565b91906101000a81548161ffff021916908361ffff1602179055505061184f83611c5d565b5b505050505050565b6118606112db565b61189f576040517f08c379a0000000000000000000000000000000000000000000000000000000008152600401611896906128c1565b60405180910390fd5b6118a881611d31565b50565b600660008373ffffffffffffffffffffffffffffffffffffffff1673ffffffffffffffffffffffffffffffffffffffff16815260200190815260200160002060008154809291906118fb906128e1565b9190505550600660003373ffffffffffffffffffffffffffffffffffffffff1673ffffffffffffffffffffffffffffffffffffffff168152602001908152602001600020600081548092919061195090612ecb565b9190505550816005600083815260200190815260200160002060006101000a81548173ffffffffffffffffffffffffffffffffffffffff021916908373ffffffffffffffffffffffffffffffffffffffff160217905550808273ffffffffffffffffffffffffffffffffffffffff168473ffffffffffffffffffffffffffffffffffffffff167fddf252ad1be2c89b69c2b068fc378daa952ba7f163c4a11628f55a4df523b3ef60405160405180910390a4505050565b6000428260020160049054906101000a900463ffffffff1663ffffffff1611159050919050565b60046040518060c00160405280848152602001838152602001600163ffffffff16815260200160035442611a629190612a61565b63ffffffff168152602001600061ffff168152602001600061ffff1681525090806001815401808255809150506001900390600052602060002090600302016000909190919091506000820151816000019081611abf9190612ef4565b506020820151816001015560408201518160020160006101000a81548163ffffffff021916908363ffffffff16021790555060608201518160020160046101000a81548163ffffffff021916908363ffffffff16021790555060808201518160020160086101000a81548161ffff021916908361ffff16021790555060a082015181600201600a6101000a81548161ffff021916908361ffff160217905550505060006001600480549050611b749190612b7a565b9050336005600083815260200190815260200160002060006101000a81548173ffffffffffffffffffffffffffffffffffffffff021916908373ffffffffffffffffffffffffffffffffffffffff160217905550600660003373ffffffffffffffffffffffffffffffffffffffff1673ffffffffffffffffffffffffffffffffffffffff1681526020019081526020016000206000815480929190611c18906128e1565b91905055507f88f026aacbbecc90c18411df4b1185fd8d9be2470f1962f192bf84a27d0704b7818484604051611c5093929190612fc6565b60405180910390a1505050565b60035442611c6b9190612a61565b8160020160046101000a81548163ffffffff021916908363ffffffff16021790555050565b60008082604051602001611ca49190612b63565b6040516020818303038152906040528051906020012060001c905060025481611ccd9190612a30565b915050919050565b600060096000815480929190611cea906128e1565b9190505550814233600954604051602001611d079392919061306d565b6040516020818303038152906040528051906020012060001c611d2a9190612a30565b9050919050565b600073ffffffffffffffffffffffffffffffffffffffff168173ffffffffffffffffffffffffffffffffffffffff1603611d6a57600080fd5b8073ffffffffffffffffffffffffffffffffffffffff1660008054906101000a900473ffffffffffffffffffffffffffffffffffffffff1673ffffffffffffffffffffffffffffffffffffffff167f8be0079c531659141344cd1fd0a4f28419497f9722a3daafe3b4186f6b6457e060405160405180910390a3806000806101000a81548173ffffffffffffffffffffffffffffffffffffffff021916908373ffffffffffffffffffffffffffffffffffffffff16021790555050565b6000604051905090565b600080fd5b600080fd5b600073ffffffffffffffffffffffffffffffffffffffff82169050919050565b6000611e6682611e3b565b9050919050565b611e7681611e5b565b8114611e8157600080fd5b50565b600081359050611e9381611e6d565b92915050565b6000819050919050565b611eac81611e99565b8114611eb757600080fd5b50565b600081359050611ec981611ea3565b92915050565b60008060408385031215611ee657611ee5611e31565b5b6000611ef485828601611e84565b9250506020611f0585828601611eba565b9150509250929050565b600060208284031215611f2557611f24611e31565b5b6000611f3384828501611eba565b91505092915050565b60008060408385031215611f5357611f52611e31565b5b6000611f6185828601611eba565b9250506020611f7285828601611eba565b9150509250929050565b600081519050919050565b600082825260208201905092915050565b60005b83811015611fb6578082015181840152602081019050611f9b565b60008484015250505050565b6000601f19601f8301169050919050565b6000611fde82611f7c565b611fe88185611f87565b9350611ff8818560208601611f98565b61200181611fc2565b840191505092915050565b61201581611e99565b82525050565b600063ffffffff82169050919050565b6120348161201b565b82525050565b600061ffff82169050919050565b6120518161203a565b82525050565b600060c08201905081810360008301526120718189611fd3565b9050612080602083018861200c565b61208d604083018761202b565b61209a606083018661202b565b6120a76080830185612048565b6120b460a0830184612048565b979650505050505050565b6000806000606084860312156120d8576120d7611e31565b5b60006120e686828701611e84565b93505060206120f786828701611e84565b925050604061210886828701611eba565b9150509250925092565b61211b81611e5b565b82525050565b60006020820190506121366000830184612112565b92915050565b60006020828403121561215257612151611e31565b5b600061216084828501611e84565b91505092915050565b600081519050919050565b600082825260208201905092915050565b6000819050602082019050919050565b61219e81611e99565b82525050565b60006121b08383612195565b60208301905092915050565b6000602082019050919050565b60006121d482612169565b6121de8185612174565b93506121e983612185565b8060005b8381101561221a57815161220188826121a4565b975061220c836121bc565b9250506001810190506121ed565b5085935050505092915050565b6000602082019050818103600083015261224181846121c9565b905092915050565b600080fd5b600080fd5b7f4e487b7100000000000000000000000000000000000000000000000000000000600052604160045260246000fd5b61228b82611fc2565b810181811067ffffffffffffffff821117156122aa576122a9612253565b5b80604052505050565b60006122bd611e27565b90506122c98282612282565b919050565b600067ffffffffffffffff8211156122e9576122e8612253565b5b6122f282611fc2565b9050602081019050919050565b82818337600083830152505050565b600061232161231c846122ce565b6122b3565b90508281526020810184848401111561233d5761233c61224e565b5b6123488482856122ff565b509392505050565b600082601f83011261236557612364612249565b5b813561237584826020860161230e565b91505092915050565b60008060006060848603121561239757612396611e31565b5b60006123a586828701611eba565b93505060206123b686828701611eba565b925050604084013567ffffffffffffffff8111156123d7576123d6611e36565b5b6123e386828701612350565b9150509250925092565b6000602082019050612402600083018461200c565b92915050565b60006020828403121561241e5761241d611e31565b5b600082013567ffffffffffffffff81111561243c5761243b611e36565b5b61244884828501612350565b91505092915050565b60008115159050919050565b61246681612451565b82525050565b6000602082019050612481600083018461245d565b92915050565b600080fd5b600080fd5b60008083601f8401126124a7576124a6612249565b5b8235905067ffffffffffffffff8111156124c4576124c3612487565b5b6020830191508360018202830111156124e0576124df61248c565b5b9250929050565b600080600060408486031215612500576124ff611e31565b5b600061250e86828701611eba565b935050602084013567ffffffffffffffff81111561252f5761252e611e36565b5b61253b86828701612491565b92509250509250925092565b7f4f6e6c79206f776e657200000000000000000000000000000000000000000000600082015250565b600061257d600a83611f87565b915061258882612547565b602082019050919050565b600060208201905081810360008301526125ac81612570565b9050919050565b7f4e65656420746f2070617920636f72726563742066656520696e206f7264657260008201527f20746f206c6576656c2075700000000000000000000000000000000000000000602082015250565b600061260f602c83611f87565b915061261a826125b3565b604082019050919050565b6000602082019050818103600083015261263e81612602565b9050919050565b7f4e487b7100000000000000000000000000000000000000000000000000000000600052603260045260246000fd5b7f4e487b7100000000000000000000000000000000000000000000000000000000600052601160045260246000fd5b60006126ae8261201b565b915063ffffffff82036126c4576126c3612674565b5b600182019050919050565b6126d881612451565b81146126e357600080fd5b50565b6000815190506126f5816126cf565b92915050565b60008151905061270a81611ea3565b92915050565b6000806000806000806000806000806101408b8d03121561273457612733611e31565b5b60006127428d828e016126e6565b9a505060206127538d828e016126e6565b99505060406127648d828e016126fb565b98505060606127758d828e016126fb565b97505060806127868d828e016126fb565b96505060a06127978d828e016126fb565b95505060c06127a88d828e016126fb565b94505060e06127b98d828e016126fb565b9350506101006127cb8d828e016126fb565b9250506101206127dd8d828e016126fb565b9150509295989b9194979a5092959850565b7f4e487b7100000000000000000000000000000000000000000000000000000000600052602260045260246000fd5b6000600282049050600182168061283657607f821691505b602082108103612849576128486127ef565b5b50919050565b7f4f6e6c79206f776e65722063616e2063616c6c20746869732066756e6374696f60008201527f6e00000000000000000000000000000000000000000000000000000000000000602082015250565b60006128ab602183611f87565b91506128b68261284f565b604082019050919050565b600060208201905081810360008301526128da8161289e565b9050919050565b60006128ec82611e99565b91507fffffffffffffffffffffffffffffffffffffffffffffffffffffffffffffffff820361291e5761291d612674565b5b600182019050919050565b7f496e76616c6964206c6576656c00000000000000000000000000000000000000600082015250565b600061295f600d83611f87565b915061296a82612929565b602082019050919050565b6000602082019050818103600083015261298e81612952565b9050919050565b7f4973206e6f742072656164792079657400000000000000000000000000000000600082015250565b60006129cb601083611f87565b91506129d682612995565b602082019050919050565b600060208201905081810360008301526129fa816129be565b9050919050565b7f4e487b7100000000000000000000000000000000000000000000000000000000600052601260045260246000fd5b6000612a3b82611e99565b9150612a4683611e99565b925082612a5657612a55612a01565b5b828206905092915050565b6000612a6c82611e99565b9150612a7783611e99565b9250828201905080821115612a8f57612a8e612674565b5b92915050565b6000612aa082611e99565b9150612aab83611e99565b925082612abb57612aba612a01565b5b828204905092915050565b600081905092915050565b7f6b69747479000000000000000000000000000000000000000000000000000000600082015250565b6000612b07600583612ac6565b9150612b1282612ad1565b600582019050919050565b6000612b2882612afa565b9150819050919050565b6000612b3d82611f7c565b612b478185612ac6565b9350612b57818560208601611f98565b80840191505092915050565b6000612b6f8284612b32565b915081905092915050565b6000612b8582611e99565b9150612b9083611e99565b9250828203905081811115612ba857612ba7612674565b5b92915050565b7f4f6e6c7920312072616e646f6d207a6f6d62696520697320616c6c6f77656400600082015250565b6000612be4601f83611f87565b9150612bef82612bae565b602082019050919050565b60006020820190508181036000830152612c1381612bd7565b9050919050565b600082905092915050565b60008190508160005260206000209050919050565b60006020601f8301049050919050565b600082821b905092915050565b600060088302612c877fffffffffffffffffffffffffffffffffffffffffffffffffffffffffffffffff82612c4a565b612c918683612c4a565b95508019841693508086168417925050509392505050565b6000819050919050565b6000612cce612cc9612cc484611e99565b612ca9565b611e99565b9050919050565b6000819050919050565b612ce883612cb3565b612cfc612cf482612cd5565b848454612c57565b825550505050565b600090565b612d11612d04565b612d1c818484612cdf565b505050565b5b81811015612d4057612d35600082612d09565b600181019050612d22565b5050565b601f821115612d8557612d5681612c25565b612d5f84612c3a565b81016020851015612d6e578190505b612d82612d7a85612c3a565b830182612d21565b50505b505050565b600082821c905092915050565b6000612da860001984600802612d8a565b1980831691505092915050565b6000612dc18383612d97565b9150826002028217905092915050565b612ddb8383612c1a565b67ffffffffffffffff811115612df457612df3612253565b5b612dfe825461281e565b612e09828285612d44565b6000601f831160018114612e385760008415612e26578287013590505b612e308582612db5565b865550612e98565b601f198416612e4686612c25565b60005b82811015612e6e57848901358255600182019150602085019450602081019050612e49565b86831015612e8b5784890135612e87601f891682612d97565b8355505b6001600288020188555050505b50505050505050565b6000612eac8261203a565b915061ffff8203612ec057612ebf612674565b5b600182019050919050565b6000612ed682611e99565b915060008203612ee957612ee8612674565b5b600182039050919050565b612efd82611f7c565b67ffffffffffffffff811115612f1657612f15612253565b5b612f20825461281e565b612f2b828285612d44565b600060209050601f831160018114612f5e5760008415612f4c578287015190505b612f568582612db5565b865550612fbe565b601f198416612f6c86612c25565b60005b82811015612f9457848901518255600182019150602085019450602081019050612f6f565b86831015612fb15784890151612fad601f891682612d97565b8355505b6001600288020188555050505b505050505050565b6000606082019050612fdb600083018661200c565b8181036020830152612fed8185611fd3565b9050612ffc604083018461200c565b949350505050565b6000819050919050565b61301f61301a82611e99565b613004565b82525050565b60008160601b9050919050565b600061303d82613025565b9050919050565b600061304f82613032565b9050919050565b61306761306282611e5b565b613044565b82525050565b6000613079828661300e565b6020820191506130898285613056565b601482019150613099828461300e565b60208201915081905094935050505056fea26469706673582212202abada37bfc108217c42089cc4f71d6842291a613cf5998b7de8738f51e69f8e64736f6c63430008130033",
  "linkReferences": {},
  "deployedLinkReferences": {}
}